{
  "contractName": "SimpleStorage",
  "abi": [
    {
      "inputs": [
        {
          "internalType": "uint256",
          "name": "_number",
          "type": "uint256"
        }
      ],
      "name": "setNumber",
      "outputs": [],
      "stateMutability": "nonpayable",
      "type": "function"
    },
    {
      "inputs": [],
      "name": "getNumber",
      "outputs": [
        {
          "internalType": "uint256",
          "name": "",
          "type": "uint256"
        }
      ],
      "stateMutability": "view",
      "type": "function",
      "constant": true
    }
  ],
  "bytecode": "0x6080604052348015600e575f80fd5b5060a58061001b5f395ff3fe6080604052348015600e575f80fd5b50600436106030575f3560e01c80633fb5c1cb146034578063f2c9ecd8146045575b5f80fd5b6043603f3660046059565b5f55565b005b5f5460405190815260200160405180910390f35b5f602082840312156068575f80fd5b503591905056fea26469706673582212200cbbfc474daa791a7f148742858e4e4dc4611e399d85f6c53cddc49ef292486e64736f6c63430008140033",
  "immutableReferences": {},
  "source": "// SPDX-License-Identifier: MIT\r\npragma solidity ^0.8.20;\r\n\r\ncontract SimpleStorage {\r\n    uint256 private number;\r\n\r\n    // 设置数字\r\n    function setNumber(uint256 _number) public {\r\n        number = _number;\r\n    }\r\n\r\n    // 获取数字\r\n    function getNumber() public view returns (uint256) {\r\n        return number;\r\n    }\r\n}\r\n",
  "sourcePath": "C:\\Users\\31787\\Desktop\\5413\\demo\\decentralized-voting-system\\contracts\\SimpleStorage.sol",
  "compiler": {
    "name": "solc",
    "version": "0.8.20+commit.a1b79de6.Emscripten.clang"
  },
  "schemaVersion": "3.4.16",
  "updatedAt": "2025-08-17T16:47:59.721Z",
  "networkType": "ethereum",
  "devdoc": {
    "kind": "dev",
    "methods": {},
    "version": 1
  },
  "userdoc": {
    "kind": "user",
    "methods": {},
    "version": 1
  }
}