{
  "contractName": "Voting",
  "abi": [
    {
      "anonymous": false,
      "inputs": [
        {
          "indexed": true,
          "internalType": "uint256",
          "name": "electionId",
          "type": "uint256"
        },
        {
          "indexed": true,
          "internalType": "address",
          "name": "admin",
          "type": "address"
        },
        {
          "indexed": false,
          "internalType": "string",
          "name": "title",
          "type": "string"
        }
      ],
      "name": "ElectionCreated",
      "type": "event"
    },
    {
      "anonymous": false,
      "inputs": [
        {
          "indexed": true,
          "internalType": "uint256",
          "name": "electionId",
          "type": "uint256"
        },
        {
          "indexed": true,
          "internalType": "uint256",
          "name": "candidateId",
          "type": "uint256"
        },
        {
          "indexed": true,
          "internalType": "address",
          "name": "voter",
          "type": "address"
        }
      ],
      "name": "Voted",
      "type": "event"
    },
    {
      "inputs": [
        {
          "internalType": "uint256",
          "name": "",
          "type": "uint256"
        }
      ],
      "name": "elections",
      "outputs": [
        {
          "internalType": "uint256",
          "name": "id",
          "type": "uint256"
        },
        {
          "internalType": "string",
          "name": "title",
          "type": "string"
        },
        {
          "internalType": "uint64",
          "name": "startTs",
          "type": "uint64"
        },
        {
          "internalType": "uint64",
          "name": "endTs",
          "type": "uint64"
        },
        {
          "internalType": "address",
          "name": "admin",
          "type": "address"
        },
        {
          "internalType": "bool",
          "name": "exists",
          "type": "bool"
        }
      ],
      "stateMutability": "view",
      "type": "function",
      "constant": true
    },
    {
      "inputs": [
        {
          "internalType": "uint256",
          "name": "",
          "type": "uint256"
        },
        {
          "internalType": "address",
          "name": "",
          "type": "address"
        }
      ],
      "name": "hasVoted",
      "outputs": [
        {
          "internalType": "bool",
          "name": "",
          "type": "bool"
        }
      ],
      "stateMutability": "view",
      "type": "function",
      "constant": true
    },
    {
      "inputs": [
        {
          "internalType": "string",
          "name": "title",
          "type": "string"
        },
        {
          "components": [
            {
              "internalType": "string",
              "name": "name",
              "type": "string"
            },
            {
              "internalType": "string",
              "name": "party",
              "type": "string"
            }
          ],
          "internalType": "struct Voting.CandidateInput[]",
          "name": "_candidates",
          "type": "tuple[]"
        },
        {
          "internalType": "uint64",
          "name": "startTs",
          "type": "uint64"
        },
        {
          "internalType": "uint64",
          "name": "endTs",
          "type": "uint64"
        }
      ],
      "name": "createElection",
      "outputs": [],
      "stateMutability": "nonpayable",
      "type": "function"
    },
    {
      "inputs": [
        {
          "internalType": "uint256",
          "name": "electionId",
          "type": "uint256"
        },
        {
          "internalType": "uint256",
          "name": "candidateId",
          "type": "uint256"
        }
      ],
      "name": "vote",
      "outputs": [],
      "stateMutability": "nonpayable",
      "type": "function"
    },
    {
      "inputs": [
        {
          "internalType": "uint256",
          "name": "electionId",
          "type": "uint256"
        }
      ],
      "name": "getElection",
      "outputs": [
        {
          "internalType": "uint256",
          "name": "id",
          "type": "uint256"
        },
        {
          "internalType": "string",
          "name": "title",
          "type": "string"
        },
        {
          "components": [
            {
              "internalType": "uint256",
              "name": "id",
              "type": "uint256"
            },
            {
              "internalType": "string",
              "name": "name",
              "type": "string"
            },
            {
              "internalType": "string",
              "name": "party",
              "type": "string"
            },
            {
              "internalType": "uint256",
              "name": "voteCount",
              "type": "uint256"
            }
          ],
          "internalType": "struct Voting.Candidate[]",
          "name": "candidates",
          "type": "tuple[]"
        },
        {
          "internalType": "uint64",
          "name": "startTs",
          "type": "uint64"
        },
        {
          "internalType": "uint64",
          "name": "endTs",
          "type": "uint64"
        },
        {
          "internalType": "address",
          "name": "admin",
          "type": "address"
        }
      ],
      "stateMutability": "view",
      "type": "function",
      "constant": true
    },
    {
      "inputs": [
        {
          "internalType": "uint256",
          "name": "electionId",
          "type": "uint256"
        }
      ],
      "name": "getCandidatesCount",
      "outputs": [
        {
          "internalType": "uint256",
          "name": "",
          "type": "uint256"
        }
      ],
      "stateMutability": "view",
      "type": "function",
      "constant": true
    },
    {
      "inputs": [
        {
          "internalType": "uint256",
          "name": "electionId",
          "type": "uint256"
        },
        {
          "internalType": "uint256",
          "name": "candidateId",
          "type": "uint256"
        }
      ],
      "name": "getCandidate",
      "outputs": [
        {
          "internalType": "uint256",
          "name": "id",
          "type": "uint256"
        },
        {
          "internalType": "string",
          "name": "name",
          "type": "string"
        },
        {
          "internalType": "string",
          "name": "party",
          "type": "string"
        },
        {
          "internalType": "uint256",
          "name": "voteCount",
          "type": "uint256"
        }
      ],
      "stateMutability": "view",
      "type": "function",
      "constant": true
    },
    {
      "inputs": [],
      "name": "getElectionCount",
      "outputs": [
        {
          "internalType": "uint256",
          "name": "",
          "type": "uint256"
        }
      ],
      "stateMutability": "view",
      "type": "function",
      "constant": true
    }
  ],
  "bytecode": "0x608060405234801561000f575f80fd5b506112eb8061001d5f395ff3fe608060405234801561000f575f80fd5b5060043610610085575f3560e01c80635e6fef01116100585780635e6fef01146101125780639d71077714610137578063b384abef1461015c578063d0f24d0614610171575f80fd5b8063213785a0146100895780633ee95f001461009f57806343859632146100b25780634bd46448146100ef575b5f80fd5b5f545b6040519081526020015b60405180910390f35b61008c6100ad366004610c5c565b610184565b6100df6100c0366004610c73565b600160209081525f928352604080842090915290825290205460ff1681565b6040519015158152602001610096565b6101026100fd366004610cac565b6101d9565b6040516100969493929190610d0f565b610125610120366004610c5c565b6103cb565b60405161009696959493929190610d4b565b61014a610145366004610c5c565b6104b4565b60405161009696959493929190610d9c565b61016f61016a366004610cac565b610766565b005b61016f61017f366004610f76565b6109b1565b5f805482106101ae5760405162461bcd60e51b81526004016101a5906110d6565b60405180910390fd5b5f82815481106101c0576101c0611102565b5f91825260209091206002600590920201015492915050565b5f6060805f808054905086106102015760405162461bcd60e51b81526004016101a5906110d6565b5f80878154811061021457610214611102565b905f5260205f20906005020190508060020180549050861061026f5760405162461bcd60e51b8152602060048201526014602482015273125b9d985b1a590818d85b991a59185d19481a5960621b60448201526064016101a5565b5f81600201878154811061028557610285611102565b905f5260205f2090600402019050805f0154816001018260020183600301548280546102b090611116565b80601f01602080910402602001604051908101604052809291908181526020018280546102dc90611116565b80156103275780601f106102fe57610100808354040283529160200191610327565b820191905f5260205f20905b81548152906001019060200180831161030a57829003601f168201915b5050505050925081805461033a90611116565b80601f016020809104026020016040519081016040528092919081815260200182805461036690611116565b80156103b15780601f10610388576101008083540402835291602001916103b1565b820191905f5260205f20905b81548152906001019060200180831161039457829003601f168201915b505050505091509550955095509550505092959194509250565b5f81815481106103d9575f80fd5b5f91825260209091206005909102018054600182018054919350906103fd90611116565b80601f016020809104026020016040519081016040528092919081815260200182805461042990611116565b80156104745780601f1061044b57610100808354040283529160200191610474565b820191905f5260205f20905b81548152906001019060200180831161045757829003601f168201915b50505050600383015460049093015491926001600160401b0380821693600160401b9092041691506001600160a01b03811690600160a01b900460ff1686565b5f6060805f805f808054905087106104de5760405162461bcd60e51b81526004016101a5906110d6565b5f8088815481106104f1576104f1611102565b5f9182526020909120600590910201805460038201546004830154600184018054949550929360028601926001600160401b0380821693600160401b90920416916001600160a01b0390911690859061054990611116565b80601f016020809104026020016040519081016040528092919081815260200182805461057590611116565b80156105c05780601f10610597576101008083540402835291602001916105c0565b820191905f5260205f20905b8154815290600101906020018083116105a357829003601f168201915b5050505050945083805480602002602001604051908101604052809291908181526020015f905b8282101561074a578382905f5260205f2090600402016040518060800160405290815f820154815260200160018201805461062190611116565b80601f016020809104026020016040519081016040528092919081815260200182805461064d90611116565b80156106985780601f1061066f57610100808354040283529160200191610698565b820191905f5260205f20905b81548152906001019060200180831161067b57829003601f168201915b505050505081526020016002820180546106b190611116565b80601f01602080910402602001604051908101604052809291908181526020018280546106dd90611116565b80156107285780601f106106ff57610100808354040283529160200191610728565b820191905f5260205f20905b81548152906001019060200180831161070b57829003601f168201915b50505050508152602001600382015481525050815260200190600101906105e7565b5050505093509650965096509650965096505091939550919395565b5f80838154811061077957610779611102565b5f918252602090912060059091020160038101549091506001600160401b03164210156107dd5760405162461bcd60e51b8152602060048201526012602482015271159bdd1a5b99c81b9bdd081cdd185c9d195960721b60448201526064016101a5565b6003810154600160401b90046001600160401b03164211156108305760405162461bcd60e51b815260206004820152600c60248201526b159bdd1a5b99c8195b99195960a21b60448201526064016101a5565b5f83815260016020908152604080832033845290915290205460ff16156108895760405162461bcd60e51b815260206004820152600d60248201526c105b1c9958591e481d9bdd1959609a1b60448201526064016101a5565b5f805b600283015481101561091757838360020182815481106108ae576108ae611102565b905f5260205f2090600402015f0154036109055760018360020182815481106108d9576108d9611102565b905f5260205f2090600402016003015f8282546108f69190611162565b90915550600192506109179050565b8061090f8161117b565b91505061088c565b508061095b5760405162461bcd60e51b815260206004820152601360248201527210d85b991a59185d19481b9bdd08199bdd5b99606a1b60448201526064016101a5565b5f848152600160208181526040808420338086529252808420805460ff191690931790925590519091859187917fd91ecafccf238642dccd41161308b3eebe62a12bc5819daf5164780c221ec95b91a450505050565b5f8451116109f25760405162461bcd60e51b815260206004820152600e60248201526d151a5d1b19481c995c5d5a5c995960921b60448201526064016101a5565b600283511015610a445760405162461bcd60e51b815260206004820152601e60248201527f4174206c6561737420322063616e64696461746573207265717569726564000060448201526064016101a5565b816001600160401b0316816001600160401b031611610aa55760405162461bcd60e51b815260206004820152601760248201527f456e64206d75737420626520616674657220737461727400000000000000000060448201526064016101a5565b5f805460018101808355828052909190819083908110610ac757610ac7611102565b5f9182526020909120600590910201828155905060018101610ae987826111e1565b506003810180546001600160401b03858116600160401b026fffffffffffffffffffffffffffffffff199092169087161717905560048101805460ff60a01b1933166001600160a81b031990911617600160a01b1790555f5b8551811015610c1157816002016040518060800160405280838152602001888481518110610b7257610b72611102565b60200260200101515f01518152602001888481518110610b9457610b94611102565b60209081029190910181015181015182525f9181018290528354600181810186559483529181902083516004909302019182558201519192909190820190610bdc90826111e1565b5060408201516002820190610bf190826111e1565b506060820151816003015550508080610c099061117b565b915050610b42565b50336001600160a01b0316827f0899cd1399cb5255769838bb5633e6d9fc0b49629382ae5b27bbaebd44d3187088604051610c4c919061129c565b60405180910390a3505050505050565b5f60208284031215610c6c575f80fd5b5035919050565b5f8060408385031215610c84575f80fd5b8235915060208301356001600160a01b0381168114610ca1575f80fd5b809150509250929050565b5f8060408385031215610cbd575f80fd5b50508035926020909101359150565b5f81518084525f5b81811015610cf057602081850181015186830182015201610cd4565b505f602082860101526020601f19601f83011685010191505092915050565b848152608060208201525f610d276080830186610ccc565b8281036040840152610d398186610ccc565b91505082606083015295945050505050565b86815260c060208201525f610d6360c0830188610ccc565b6001600160401b0396871660408401529490951660608201526001600160a01b03929092166080830152151560a0909101529392505050565b8681525f602060c081840152610db560c0840189610ccc565b6040848203818601528189518084528484019150848160051b850101858c015f5b83811015610e3d57601f19878403018552815160808151855289820151818b870152610e0482870182610ccc565b9150508782015185820389870152610e1c8282610ccc565b60609384015196909301959095525094880194925090870190600101610dd6565b50506001600160401b038b1660608901529550610e5b945050505050565b6001600160401b03841660808301526001600160a01b03831660a0830152979650505050505050565b634e487b7160e01b5f52604160045260245ffd5b604080519081016001600160401b0381118282101715610eba57610eba610e84565b60405290565b604051601f8201601f191681016001600160401b0381118282101715610ee857610ee8610e84565b604052919050565b5f82601f830112610eff575f80fd5b81356001600160401b03811115610f1857610f18610e84565b610f2b601f8201601f1916602001610ec0565b818152846020838601011115610f3f575f80fd5b816020850160208301375f918101602001919091529392505050565b80356001600160401b0381168114610f71575f80fd5b919050565b5f805f8060808587031215610f89575f80fd5b6001600160401b038086351115610f9e575f80fd5b610fab8787358801610ef0565b9450602086013581811115610fbe575f80fd5b8601601f81018813610fce575f80fd5b803582811115610fe057610fe0610e84565b610fef60208260051b01610ec0565b8082825260208201915060208360051b85010192508a831115611010575f80fd5b602084015b838110156110a857858135111561102a575f80fd5b803585016040818e03601f19011215611041575f80fd5b611049610e98565b60208201358881111561105a575f80fd5b6110698f602083860101610ef0565b82525060408201358881111561107d575f80fd5b61108c8f602083860101610ef0565b6020830152508085525050602083019250602081019050611015565b5080975050505050506110bd60408601610f5b565b91506110cb60608601610f5b565b905092959194509250565b602080825260129082015271115b1958dd1a5bdb881b9bdd08199bdd5b9960721b604082015260600190565b634e487b7160e01b5f52603260045260245ffd5b600181811c9082168061112a57607f821691505b60208210810361114857634e487b7160e01b5f52602260045260245ffd5b50919050565b634e487b7160e01b5f52601160045260245ffd5b808201808211156111755761117561114e565b92915050565b5f6001820161118c5761118c61114e565b5060010190565b601f8211156111dc575f81815260208120601f850160051c810160208610156111b95750805b601f850160051c820191505b818110156111d8578281556001016111c5565b5050505b505050565b81516001600160401b038111156111fa576111fa610e84565b61120e816112088454611116565b84611193565b602080601f831160018114611241575f841561122a5750858301515b5f19600386901b1c1916600185901b1785556111d8565b5f85815260208120601f198616915b8281101561126f57888601518255948401946001909101908401611250565b508582101561128c57878501515f19600388901b60f8161c191681555b5050505050600190811b01905550565b602081525f6112ae6020830184610ccc565b939250505056fea2646970667358221220d8a56a85ae4ef919334880eb5aeb7be680260fca3da3fd395647b6c60ab6f1b264736f6c63430008140033",
  "immutableReferences": {},
  "source": "// SPDX-License-Identifier: MIT\r\npragma solidity ^0.8.20;\r\n\r\ncontract Voting {\r\n    // ----------  ----------\r\n    struct Candidate {\r\n        uint256 id;         //  ID\r\n        string name;\r\n        string party;\r\n        uint256 voteCount;\r\n    }\r\n\r\n    struct CandidateInput {\r\n        string name;\r\n        string party;\r\n    }\r\n\r\n    struct Election {\r\n        uint256 id;              //  electionId\r\n        string title;\r\n        Candidate[] candidates;\r\n        uint64 startTs;\r\n        uint64 endTs;\r\n        address admin;\r\n        bool exists;\r\n    }\r\n\r\n    // ----------  ----------\r\n    Election[] public elections; \r\n    mapping(uint256 => mapping(address => bool)) public hasVoted; // electionId => voter => bool\r\n\r\n    // ----------  ----------\r\n    event ElectionCreated(uint256 indexed electionId, address indexed admin, string title);\r\n    event Voted(uint256 indexed electionId, uint256 indexed candidateId, address indexed voter);\r\n\r\n    // ----------  ----------\r\n    function createElection(\r\n        string memory title,\r\n        CandidateInput[] memory _candidates,\r\n        uint64 startTs,\r\n        uint64 endTs\r\n    ) external {\r\n        require(bytes(title).length > 0, \"Title required\");\r\n        require(_candidates.length >= 2, \"At least 2 candidates required\");\r\n        require(endTs > startTs, \"End must be after start\");\r\n\r\n        uint256 newElectionId = elections.length; \r\n        elections.push();\r\n        Election storage e = elections[newElectionId];\r\n        e.id = newElectionId;\r\n        e.title = title;\r\n        e.startTs = startTs;\r\n        e.endTs = endTs;\r\n        e.admin = msg.sender;\r\n        e.exists = true;\r\n\r\n        //  id = \r\n        for (uint i = 0; i < _candidates.length; i++) {\r\n            e.candidates.push(\r\n                Candidate({\r\n                    id: i,\r\n                    name: _candidates[i].name,\r\n                    party: _candidates[i].party,\r\n                    voteCount: 0\r\n                })\r\n            );\r\n        }\r\n\r\n        emit ElectionCreated(newElectionId, msg.sender, title);\r\n    }\r\n\r\n    // ----------  ----------\r\n    function vote(uint256 electionId, uint256 candidateId) external {\r\n        //require(electionId < elections.length, \"Election not found\");\r\n        Election storage e = elections[electionId];\r\n\r\n        require(block.timestamp >= e.startTs, \"Voting not started\");\r\n        require(block.timestamp <= e.endTs, \"Voting ended\");\r\n        require(!hasVoted[electionId][msg.sender], \"Already voted\");\r\n\r\n        //  candidate.id\r\n        bool found = false;\r\n        for (uint i = 0; i < e.candidates.length; i++) {\r\n            if (e.candidates[i].id == candidateId) {\r\n                e.candidates[i].voteCount += 1;\r\n                found = true;\r\n                break;\r\n            }\r\n        }\r\n        require(found, \"Candidate not found\");\r\n\r\n        hasVoted[electionId][msg.sender] = true;\r\n\r\n        emit Voted(electionId, candidateId, msg.sender);\r\n    }\r\n\r\n\r\n    // ----------  ----------\r\n    function getElection(uint256 electionId)\r\n        external\r\n        view\r\n        returns (\r\n            uint256 id,\r\n            string memory title,\r\n            Candidate[] memory candidates,\r\n            uint64 startTs,\r\n            uint64 endTs,\r\n            address admin\r\n        )\r\n    {\r\n        require(electionId < elections.length, \"Election not found\");\r\n        Election storage e = elections[electionId];\r\n        return (e.id, e.title, e.candidates, e.startTs, e.endTs, e.admin);\r\n    }\r\n\r\n    function getCandidatesCount(uint256 electionId) external view returns (uint256) {\r\n        require(electionId < elections.length, \"Election not found\");\r\n        return elections[electionId].candidates.length;\r\n    }\r\n\r\n    function getCandidate(uint256 electionId, uint256 candidateId)\r\n        external\r\n        view\r\n        returns (uint256 id, string memory name, string memory party, uint256 voteCount)\r\n    {\r\n        require(electionId < elections.length, \"Election not found\");\r\n        Election storage e = elections[electionId];\r\n        require(candidateId < e.candidates.length, \"Invalid candidate id\");\r\n        Candidate storage c = e.candidates[candidateId];\r\n        return (c.id, c.name, c.party, c.voteCount);\r\n    }\r\n\r\n    function getElectionCount() external view returns (uint256) {\r\n        return elections.length;\r\n    }\r\n}\r\n",
  "sourcePath": "C:\\Users\\31787\\Desktop\\5413\\demo\\decentralized-voting-system\\contracts\\Voting.sol",
  "compiler": {
    "name": "solc",
    "version": "0.8.20+commit.a1b79de6.Emscripten.clang"
  },
  "schemaVersion": "3.4.16",
  "updatedAt": "2025-08-17T21:55:41.887Z",
  "networkType": "ethereum",
  "devdoc": {
    "kind": "dev",
    "methods": {},
    "version": 1
  },
  "userdoc": {
    "kind": "user",
    "methods": {},
    "version": 1
  }
}